:08000000803102288731FD2F39
:100DA00020009C170800803022009C00080078304A
:100DB0002100990098010800240094012430950036
:100DC000970126008E01080090302C009C009B01AA
:100DD0009A013F3025009E05080090302C009900B4
:100DE0007F309800C0309700CF3025009E05080066
:100DF000F20024001108F0007008F1009513720849
:100E00009100141C012F1108080020009C010530DE
:100E10009E0003309D0008309F00FF309B009A0128
:100E200090108631D02608008731552787318631CA
:100E3000D72687318631DC2687318631E426873113
:100E40008631ED2687318731052787318631D326D4
:100E500008007108F3007008F200F336F20CF33664
:100E6000F20C72082C00980070080339F20005306B
:100E7000F235FF3E031D382F7235970008007108C8
:100E8000F3007008F200F336F20CF336F20C72083D
:100E90002C009B0070080339F2000530F235FF3E4C
:100EA000031D4E2F72359A00080022008C018E011E
:100EB0003F3024008C003F308E00173023008C0020
:100EC00001308E000F3021008E0036308C009517D7
:100ED00000308B1B0130F0008B1355303C008F002D
:100EE000AA308F000F101330A20005309800123086
:100EF000A1000F303D00A4000E30A50011303C00D1
:100F0000A00003303D00900055303C008F00AA3017
:100F10008F000F14701C8E2F8B1708008B13080086
:100F200087311427873128008E160E16F601F70137
:100F3000F801F901FA017908003E840088300318AD
:100F4000013E85000008F400F5017408F000750802
:100F5000F1008731292787317A08003E84008830E4
:100F60000318013E85000008F400F5017408F00044
:100F70007508F10087313F278731D32F7808F400B7
:100F80007408F9007908003E840088300318013E97
:100F900085000008F400F5017408F0007508F10000
:100FA00087312927873176088631F8268731F40082
:100FB0007408F70076088631F8268731F400740843
:100FC000F80077080319BE2F7703031DD32F780885
:100FD000F4007408FA007A08003E84008830031890
:100FE000013E85000008F400F5017408F000750862
:100FF000F10087313F278731D32F20008731902F91
:10100000FF34FF34FE34FE34FD34FD34FC34FC3454
:10101000FB34FB34FB34FA34FA34F934F934F83461
:10102000F834F734F734F734F634F634F534F5346D
:10103000F434F434F334F334F234F234F134F0347D
:10104000F034EF34EE34EE34ED34EC34EC34EB3495
:10105000EA34E934E934E834E734E634E534E434B6
:10106000E334E234E134E034DF34DE34DD34DC34E4
:10107000DB34DA34D934D834D734D534D434D33417
:10108000D234D034CF34CD34CC34CB34C934C8345A
:10109000C634C534C334C234C034BE34BD34BB34AA
:1010A000B934B834B634B434B234B034AE34AC3409
:1010B000AB34A934A734A534A234A0349E349C3474
:1010C0009A3498349534933491348E348C348934F2
:1010D0008734843482347F347D347A347734753481
:1010E00072346F346C346A346734643461345E341F
:1010F0005B345834543451344E344B3448344434D3
:1011000041343D343A34373433342F342C3428349A
:10111000253421341D341934153412340E340A3474
:1011200006340134FD34F934F534F134EC34E83468
:10113000E434DF34DB34D634D234CD34C834C43470
:10114000BF34BA34B534B034AB34A634A1349C3493
:10115000973492348D34873482347D3477347234CA
:101160006C34673461345B34563450344A3444341C
:101170003E34383432342C3426341F34193413348A
:101180000C340634FF34F934F234EB34E534DE3415
:10119000D734D034C934C234BB34B434AD34A634BB
:1011A0009E3497348F348834803479347134693480
:1011B00062345A3452344A3442343A343234293460
:1011C0002134193410340834FF34F734EE34E53464
:1011D000DD34D434CB34C234B934B034A6349D3485
:1011E00094348A34813478346E3464345B345134CA
:1011F00047343D34333429341F3415340A34003431
:020000040001F9
:06000E00FC3FFF3F9F3F95
:00000001FF
