:08000000803102288731FD2F39
:100D2C0024001513080020009C17080028009517B4
:100D3C000800803022009C000800683021009900D7
:100D4C00980108002400150E890C890C0139080043
:100D5C0024009401243095009701080090302C0059
:100D6C00990032309800C0309700CF3025009E0596
:100D7C000800F20024001108F0007008F10095132F
:100D8C0072089100141CC82E1108080090302C0019
:100D9C009C007F309B00C0309A0025001E083F3914
:100DAC0040389E000800D03020009C009E0103308B
:100DBC009D0008309F00FF309B009A0190108631F7
:100DCC0099260800D0302800950097010330960032
:100DDC0008309800FF309400930120009110863168
:100DEC009C2608007108F3007008F200F336F20C30
:100DFC00F336F20C72082C00980070080339F200DC
:100E0C000530F235FF3E031D072F723597000800A1
:100E1C007108F3007008F200F336F20CF336F20CA2
:100E2C0072082C009B0070080339F2000530F23573
:100E3C00FF3E031D1D2F72359A00080087313C2799
:100E4C0087318631A32687318631AE2687318631AC
:100E5C00CC2687318631E82687318631B426873116
:100E6C008631D926873186319F26080022008C01D5
:100E7C008E013F3024008C003F308E001730230051
:100E8C008C0004308E000B3021008E0024308C003E
:100E9C0095178B1100308B1B0130F0008B135530E4
:100EAC003C008F00AA308F000F101330A2000530C9
:100EBC0098001130A10003303D0094000E30A400C6
:100ECC001130A2000F30A50010303C00A0000530FE
:100EDC009B00303028008E0055303C008F00AA302B
:100EEC008F000F14701C7C2F8B1708008B130800BD
:100EFC00873124278731F801F901FA01F601F7014E
:100F0C007608F400F501F435F50D00307407840013
:100F1C008830753D8500003FF000013FF1008631BF
:100F2C00F82687317708F400F501F435F50D00301B
:100F3C00740784008830753D8500003FF000013F48
:100F4C00F10087310E2787318631A8268731003A88
:100F5C000319BD2F8631962687311A30F500F830EB
:100F6C00F400F40BB72FF50BB72F0000D52F780832
:100F7C008631BF268731F4007408F9008631A82623
:100F8C008731003A0319CE2F863196268731D52F1B
:100F9C0078088631BF268731F4007408FA00790886
:100FAC00031DEB2F7A08F400F501F435F50D003034
:100FBC00740784008830753D8500003FF000013FC8
:100FCC00F1008631F8268731AA2F7903031DAA2F49
:100FDC007A08F400F501F435F50D0030740784003F
:100FEC008830753D8500003FF000013FA62F2000A2
:100FFC0087317E2F00340034003400340134003447
:10100C00013400340234003402340034033400342C
:10101C000334003404340034043400340434003415
:10102C0005340034053400340634003406340034FE
:10103C0007340034073400340834003408340034E6
:10104C000834003409340034093400340A340034D0
:10105C000A3400340B3400340B3400340C340034B8
:10106C000C3400340D3400340D3400340E340034A0
:10107C000F3400340F340034103400341134003485
:10108C00113400341234003413340034133400346B
:10109C00143400341534003416340034163400344F
:1010AC001734003418340034193400341A34003432
:1010BC001B3400341C3400341D3400341E34003412
:1010CC001F340034203400342134003422340034F2
:1010DC0023340034243400342534003426340034D2
:1010EC0027340034293400342A3400342B340034AF
:1010FC002C3400342E3400342F340034303400348B
:10110C003234003433340034343400343634003464
:10111C0037340034393400343A3400343C3400343D
:10112C003D3400343F340034413400344234003414
:10113C0044340034463400344734003449340034E9
:10114C004B3400344D3400344F34003451340034BB
:10115C00533400345534003457340034593400348B
:10116C005B3400345D3400345F340034613400345B
:10117C006334003465340034683400346A34003429
:10118C006C3400346E3400347134003473340034F5
:10119C0076340034783400347B3400347D340034BD
:1011AC008034003482340034853400348834003484
:1011BC008A3400348D340034903400349334003449
:1011CC0096340034993400349B3400349E3400340B
:1011DC00A1340034A4340034A8340034AB340034CB
:1011EC00AE340034B1340034B4340034B834003488
:1011FC00BB340034BE340034C2340034C534003443
:10120C00C9340034CC340034D0340034D3340034FA
:10121C00D7340034DB340034DE340034E2340034B0
:10122C00E6340034EA340034EE340034F234003462
:10123C00F6340034FA340034FE3400340234013411
:10124C00063401340A3401340F34013413340134BC
:10125C00173401341C340134203401342434013467
:10126C00293401342E34013432340134373401340E
:10127C003C34013440340134453401344A340134B3
:10128C004F34013454340134593401345E34013454
:10129C0063340134683401346D34013473340134F3
:1012AC00783401347D34013483340134883401348E
:1012BC008E34013493340134993401349E34013426
:1012CC00A4340134AA340134B0340134B6340134BA
:1012DC00BB340134C1340134C7340134CE3401344D
:1012EC00D4340134DA340134E0340134E6340134DA
:1012FC00ED340134F3340134FA3401340034023463
:10130C00073402340D340234143402341B340234E6
:10131C0022340234283402342F340234363402346A
:10132C003D340234443402344C34023453340234E9
:10133C005A34023461340234693402347034023465
:10134C00783402347F340234873402348E340234DD
:10135C00963402349E340234A6340234AE34023451
:10136C00B6340234BE340234C6340234CE340234C1
:10137C00D6340234DF340234E7340234EF3402342E
:10138C00F834023400340334093403341234033493
:10139C001A340334233403342C34033435340334F7
:1013AC003E34033447340334503403345934033457
:1013BC00633403346C340334753403347F340334B2
:1013CC0088340334923403349C340334A53403340A
:1013DC00AF340334B9340334C3340334CD3403345D
:1013EC00D7340334E1340334EB340334F6340334AC
:0413FC00FF34033483
:020000040001F9
:06000E00FC3FFF1F9F3FB5
:00000001FF
