:04000000803117280C
:100008007E14803120007F08F7002100901D1228FF
:100018002000901D122890118131D92177082000E5
:10002800FF007E10090080311928A801A9017E105F
:10003800200081311F29FF34FF34FE34FE34FD34A3
:10004800FD34FC34FC34FB34FB34FB34FA34FA342E
:10005800F934F934F834F834F734F734F734F6343B
:10006800F634F534F534F434F434F334F334F23448
:10007800F234F134F034F034EF34EE34EE34ED345D
:10008800EC34EC34EB34EA34E934E934E834E7347A
:10009800E634E534E434E334E234E134E034DF34A4
:1000A800DE34DD34DC34DB34DA34D934D834D734D4
:1000B800D534D434D334D234D034CF34CD34CC3412
:1000C800CB34C934C834C634C534C334C234C0345C
:1000D800BE34BD34BB34B934B834B634B434B234B5
:1000E800B034AE34AC34AB34A934A734A534A2341C
:1000F800A0349E349C349A34983495349334913493
:100108008E348C3489348734843482347F347D341B
:100118007A347734753472346F346C346A346734B3
:10012800643461345E345B345834543451344E345E
:100138004B344834443441343D343A34373433341E
:100148002F342C342834253421341D3419341534F3
:1001580012340E340A3406340134FD34F934F534DB
:10016800F134EC34E834E434DF34DB34D634D234DC
:10017800CD34C834C434BF34BA34B534B034AB34F5
:10018800A634A1349C34973492348D348734823425
:100198007D34773472346C34673461345B3456346C
:1001A80050344A3444343E34383432342C342634CF
:1001B8001F34193413340C340634FF34F934F23450
:1001C800EB34E534DE34D734D034C934C234BB34EC
:1001D800B434AD34A6349E3497348F3488348034A4
:1001E80079347134693462345A3452344A3442347A
:1001F8003A34323429342134193410340834FF3471
:10020800F734EE34E534DD34D434CB34C234B93485
:10021800B034A6349D3494348A34813478346E34BE
:1002280064345B34513447343D34333429341F3417
:1002380015340A34003482313022813128008E1678
:100248000E168B170B172000A601A70128081F3EC2
:10025800840080300318013E85000008A400A50131
:100268002408A0002508A10082311722813120002E
:1002780029081F3E840080300318013E85000008CD
:10028800A400A5012408A0002508A1008131FE21B1
:100298008131200028082602031857290130A400BC
:1002A8002408A6075E2920002608280203186F29BB
:1002B8000130A60226081F3E840080300318013E44
:1002C80085000008A400A5012408A0002508A100B5
:1002D8008231172281312000290827020318792941
:1002E8000130A4002408A707802920002708290234
:1002F800031891290130A70227081F3E8400803087
:100308000318013E85000008A400A5012408A000E8
:100318002508A1008131FE21813134302000A5005B
:10032800F130A400A40B9629A50B962900324D297B
:1003380022008C018E013F3024008C003F308E005B
:10034800173023008C0001308E000F3021008E0002
:1003580036308C00951700308B1B01302000A00030
:100368008B1355303C008F00AA308F000F101330CC
:10037800A200053098001230A1000F303D00A40003
:100388000E30A50011303C00A00003303D00900065
:1003980055303C008F00AA308F000F142000201C1D
:1003A800D7298B1708008B1308008B130B13F40144
:1003B800F501F6017408823154228131F300730883
:1003C800F5007408823154228131F3007308F60075
:1003D8007508031DF5297608F30073082000A800A6
:1003E80008007503031D08007608F3007308200051
:1003F800A900080020002108A3002008A200A336B5
:10040800A20CA336A20C22082C009B002000200876
:100418000339A2000530A235FF3E031D0F2A2235FD
:100428002C009A00080020002108A3002008A20040
:10043800A336A20CA336A20C22082C009800200098
:1004480020080339A2000530A235FF3E031D282AE3
:1004580022352C009700080081319C21823182319D
:100468007D22823182317522823182316C22823141
:100478008231612282318231452282318231822267
:10048800080020009C0105309E0003309D000830C4
:100498009F00FF309B009A0190108231862208004D
:1004A800F20024001108F0007008F100951372089A
:1004B8009100141C5D2A1108080090302C00990046
:1004C8007F309800C0309700CF3025009E05080087
:1004D80090302C009C009B019A013F3025009E051E
:1004E80008002400940124309500970126008E010D
:1004F8000800783021009900980108008030220017
:0A0508009C00080020009C1708006A
:020000040001F9
:06000E00FC3FFF3F9F3F95
:00000001FF
